{
  "contractName": "samp",
  "abi": [
    {
      "anonymous": false,
      "inputs": [
        {
          "indexed": false,
          "internalType": "address",
          "name": "previousAdmin",
          "type": "address"
        },
        {
          "indexed": false,
          "internalType": "address",
          "name": "newAdmin",
          "type": "address"
        }
      ],
      "name": "AdminChanged",
      "type": "event"
    },
    {
      "anonymous": false,
      "inputs": [
        {
          "indexed": true,
          "internalType": "address",
          "name": "beacon",
          "type": "address"
        }
      ],
      "name": "BeaconUpgraded",
      "type": "event"
    },
    {
      "anonymous": false,
      "inputs": [
        {
          "indexed": true,
          "internalType": "address",
          "name": "previousOwner",
          "type": "address"
        },
        {
          "indexed": true,
          "internalType": "address",
          "name": "newOwner",
          "type": "address"
        }
      ],
      "name": "OwnershipTransferred",
      "type": "event"
    },
    {
      "anonymous": false,
      "inputs": [
        {
          "indexed": true,
          "internalType": "address",
          "name": "implementation",
          "type": "address"
        }
      ],
      "name": "Upgraded",
      "type": "event"
    },
    {
      "inputs": [],
      "name": "owner",
      "outputs": [
        {
          "internalType": "address",
          "name": "",
          "type": "address"
        }
      ],
      "stateMutability": "view",
      "type": "function"
    },
    {
      "inputs": [],
      "name": "renounceOwnership",
      "outputs": [],
      "stateMutability": "nonpayable",
      "type": "function"
    },
    {
      "inputs": [
        {
          "internalType": "address",
          "name": "newOwner",
          "type": "address"
        }
      ],
      "name": "transferOwnership",
      "outputs": [],
      "stateMutability": "nonpayable",
      "type": "function"
    },
    {
      "inputs": [
        {
          "internalType": "address",
          "name": "newImplementation",
          "type": "address"
        }
      ],
      "name": "upgradeTo",
      "outputs": [],
      "stateMutability": "nonpayable",
      "type": "function"
    },
    {
      "inputs": [
        {
          "internalType": "address",
          "name": "newImplementation",
          "type": "address"
        },
        {
          "internalType": "bytes",
          "name": "data",
          "type": "bytes"
        }
      ],
      "name": "upgradeToAndCall",
      "outputs": [],
      "stateMutability": "payable",
      "type": "function"
    },
    {
      "inputs": [],
      "name": "initialize",
      "outputs": [],
      "stateMutability": "nonpayable",
      "type": "function"
    },
    {
      "inputs": [],
      "name": "retvalue",
      "outputs": [
        {
          "internalType": "string",
          "name": "",
          "type": "string"
        }
      ],
      "stateMutability": "pure",
      "type": "function"
    }
  ],
  "bytecode": "0x608060405234801561001057600080fd5b5061141f806100206000396000f3fe6080604052600436106100705760003560e01c8063715018a61161004e578063715018a6146100e55780638129fc1c146100fc5780638da5cb5b14610113578063f2fde38b1461013e57610070565b80633209e355146100755780633659cfe6146100a05780634f1ef286146100c9575b600080fd5b34801561008157600080fd5b5061008a610167565b6040516100979190610f94565b60405180910390f35b3480156100ac57600080fd5b506100c760048036038101906100c29190610d8e565b6101a4565b005b6100e360048036038101906100de9190610dbb565b6101cb565b005b3480156100f157600080fd5b506100fa6101e4565b005b34801561010857600080fd5b5061011161026c565b005b34801561011f57600080fd5b5061012861034d565b6040516101359190610f79565b60405180910390f35b34801561014a57600080fd5b5061016560048036038101906101609190610d8e565b610377565b005b60606040518060400160405280600281526020017f7631000000000000000000000000000000000000000000000000000000000000815250905090565b6101ad8161046f565b6101c8816040518060200160405280600081525060006104ee565b50565b6101d48261046f565b6101e0828260016104ee565b5050565b6101ec6106bf565b73ffffffffffffffffffffffffffffffffffffffff1661020a61034d565b73ffffffffffffffffffffffffffffffffffffffff1614610260576040517f08c379a000000000000000000000000000000000000000000000000000000000815260040161025790611036565b60405180910390fd5b61026a60006106c7565b565b600060019054906101000a900460ff1680610292575060008054906101000a900460ff16155b6102d1576040517f08c379a00000000000000000000000000000000000000000000000000000000081526004016102c890610ff6565b60405180910390fd5b60008060019054906101000a900460ff161590508015610321576001600060016101000a81548160ff02191690831515021790555060016000806101000a81548160ff0219169083151502179055505b61032961078d565b801561034a5760008060016101000a81548160ff0219169083151502179055505b50565b6000609760009054906101000a900473ffffffffffffffffffffffffffffffffffffffff16905090565b61037f6106bf565b73ffffffffffffffffffffffffffffffffffffffff1661039d61034d565b73ffffffffffffffffffffffffffffffffffffffff16146103f3576040517f08c379a00000000000000000000000000000000000000000000000000000000081526004016103ea90611036565b60405180910390fd5b600073ffffffffffffffffffffffffffffffffffffffff168173ffffffffffffffffffffffffffffffffffffffff161415610463576040517f08c379a000000000000000000000000000000000000000000000000000000000815260040161045a90610fd6565b60405180910390fd5b61046c816106c7565b50565b6104776106bf565b73ffffffffffffffffffffffffffffffffffffffff1661049561034d565b73ffffffffffffffffffffffffffffffffffffffff16146104eb576040517f08c379a00000000000000000000000000000000000000000000000000000000081526004016104e290611036565b60405180910390fd5b50565b60006104f8610876565b9050610503846108cd565b6000835111806105105750815b156105215761051f8484610986565b505b600061054f7f4910fdfa16fed3260ed0e7147f7cc6da11a60208b5b9406d12a635614ffd914360001b610a6a565b90508060000160009054906101000a900460ff166106b85760018160000160006101000a81548160ff02191690831515021790555061061b85836040516024016105999190610f79565b6040516020818303038152906040527f3659cfe6000000000000000000000000000000000000000000000000000000007bffffffffffffffffffffffffffffffffffffffffffffffffffffffff19166020820180517bffffffffffffffffffffffffffffffffffffffffffffffffffffffff8381831617835250505050610986565b5060008160000160006101000a81548160ff021916908315150217905550610641610876565b73ffffffffffffffffffffffffffffffffffffffff168273ffffffffffffffffffffffffffffffffffffffff16146106ae576040517f08c379a00000000000000000000000000000000000000000000000000000000081526004016106a590610fb6565b60405180910390fd5b6106b785610a74565b5b5050505050565b600033905090565b6000609760009054906101000a900473ffffffffffffffffffffffffffffffffffffffff16905081609760006101000a81548173ffffffffffffffffffffffffffffffffffffffff021916908373ffffffffffffffffffffffffffffffffffffffff1602179055508173ffffffffffffffffffffffffffffffffffffffff168173ffffffffffffffffffffffffffffffffffffffff167f8be0079c531659141344cd1fd0a4f28419497f9722a3daafe3b4186f6b6457e060405160405180910390a35050565b600060019054906101000a900460ff16806107b3575060008054906101000a900460ff16155b6107f2576040517f08c379a00000000000000000000000000000000000000000000000000000000081526004016107e990610ff6565b60405180910390fd5b60008060019054906101000a900460ff161590508015610842576001600060016101000a81548160ff02191690831515021790555060016000806101000a81548160ff0219169083151502179055505b61084a610ac3565b610852610b9c565b80156108735760008060016101000a81548160ff0219169083151502179055505b50565b60006108a47f360894a13ba1a3210667c828492db98dca3e2076cc3735a920a3ca505d382bbc60001b610c85565b60000160009054906101000a900473ffffffffffffffffffffffffffffffffffffffff16905090565b6108d681610c8f565b610915576040517f08c379a000000000000000000000000000000000000000000000000000000000815260040161090c90611016565b60405180910390fd5b806109427f360894a13ba1a3210667c828492db98dca3e2076cc3735a920a3ca505d382bbc60001b610c85565b60000160006101000a81548173ffffffffffffffffffffffffffffffffffffffff021916908373ffffffffffffffffffffffffffffffffffffffff16021790555050565b606061099183610c8f565b6109d0576040517f08c379a00000000000000000000000000000000000000000000000000000000081526004016109c790611056565b60405180910390fd5b6000808473ffffffffffffffffffffffffffffffffffffffff16846040516109f89190610f62565b600060405180830381855af49150503d8060008114610a33576040519150601f19603f3d011682016040523d82523d6000602084013e610a38565b606091505b5091509150610a6082826040518060600160405280602781526020016113c360279139610ca2565b9250505092915050565b6000819050919050565b610a7d816108cd565b8073ffffffffffffffffffffffffffffffffffffffff167fbc7cd75a20ee27fd9adebab32041f755214dbc6bffa90cc0225b39da2e5c2d3b60405160405180910390a250565b600060019054906101000a900460ff1680610ae9575060008054906101000a900460ff16155b610b28576040517f08c379a0000000000000000000000000000000000000000000000000000000008152600401610b1f90610ff6565b60405180910390fd5b60008060019054906101000a900460ff161590508015610b78576001600060016101000a81548160ff02191690831515021790555060016000806101000a81548160ff0219169083151502179055505b8015610b995760008060016101000a81548160ff0219169083151502179055505b50565b600060019054906101000a900460ff1680610bc2575060008054906101000a900460ff16155b610c01576040517f08c379a0000000000000000000000000000000000000000000000000000000008152600401610bf890610ff6565b60405180910390fd5b60008060019054906101000a900460ff161590508015610c51576001600060016101000a81548160ff02191690831515021790555060016000806101000a81548160ff0219169083151502179055505b610c61610c5c6106bf565b6106c7565b8015610c825760008060016101000a81548160ff0219169083151502179055505b50565b6000819050919050565b600080823b905060008111915050919050565b60608315610cb257829050610d02565b600083511115610cc55782518084602001fd5b816040517f08c379a0000000000000000000000000000000000000000000000000000000008152600401610cf99190610f94565b60405180910390fd5b9392505050565b6000610d1c610d178461109b565b611076565b905082815260208101848484011115610d3857610d376111d7565b5b610d43848285611130565b509392505050565b600081359050610d5a816113ab565b92915050565b600082601f830112610d7557610d746111d2565b5b8135610d85848260208601610d09565b91505092915050565b600060208284031215610da457610da36111e1565b5b6000610db284828501610d4b565b91505092915050565b60008060408385031215610dd257610dd16111e1565b5b6000610de085828601610d4b565b925050602083013567ffffffffffffffff811115610e0157610e006111dc565b5b610e0d85828601610d60565b9150509250929050565b610e20816110fe565b82525050565b6000610e31826110cc565b610e3b81856110e2565b9350610e4b81856020860161113f565b80840191505092915050565b6000610e62826110d7565b610e6c81856110ed565b9350610e7c81856020860161113f565b610e85816111e6565b840191505092915050565b6000610e9d602f836110ed565b9150610ea8826111f7565b604082019050919050565b6000610ec06026836110ed565b9150610ecb82611246565b604082019050919050565b6000610ee3602e836110ed565b9150610eee82611295565b604082019050919050565b6000610f06602d836110ed565b9150610f11826112e4565b604082019050919050565b6000610f296020836110ed565b9150610f3482611333565b602082019050919050565b6000610f4c6026836110ed565b9150610f578261135c565b604082019050919050565b6000610f6e8284610e26565b915081905092915050565b6000602082019050610f8e6000830184610e17565b92915050565b60006020820190508181036000830152610fae8184610e57565b905092915050565b60006020820190508181036000830152610fcf81610e90565b9050919050565b60006020820190508181036000830152610fef81610eb3565b9050919050565b6000602082019050818103600083015261100f81610ed6565b9050919050565b6000602082019050818103600083015261102f81610ef9565b9050919050565b6000602082019050818103600083015261104f81610f1c565b9050919050565b6000602082019050818103600083015261106f81610f3f565b9050919050565b6000611080611091565b905061108c8282611172565b919050565b6000604051905090565b600067ffffffffffffffff8211156110b6576110b56111a3565b5b6110bf826111e6565b9050602081019050919050565b600081519050919050565b600081519050919050565b600081905092915050565b600082825260208201905092915050565b600061110982611110565b9050919050565b600073ffffffffffffffffffffffffffffffffffffffff82169050919050565b82818337600083830152505050565b60005b8381101561115d578082015181840152602081019050611142565b8381111561116c576000848401525b50505050565b61117b826111e6565b810181811067ffffffffffffffff8211171561119a576111996111a3565b5b80604052505050565b7f4e487b7100000000000000000000000000000000000000000000000000000000600052604160045260246000fd5b600080fd5b600080fd5b600080fd5b600080fd5b6000601f19601f8301169050919050565b7f45524331393637557067726164653a207570677261646520627265616b73206660008201527f7572746865722075706772616465730000000000000000000000000000000000602082015250565b7f4f776e61626c653a206e6577206f776e657220697320746865207a65726f206160008201527f6464726573730000000000000000000000000000000000000000000000000000602082015250565b7f496e697469616c697a61626c653a20636f6e747261637420697320616c72656160008201527f647920696e697469616c697a6564000000000000000000000000000000000000602082015250565b7f455243313936373a206e657720696d706c656d656e746174696f6e206973206e60008201527f6f74206120636f6e747261637400000000000000000000000000000000000000602082015250565b7f4f776e61626c653a2063616c6c6572206973206e6f7420746865206f776e6572600082015250565b7f416464726573733a2064656c65676174652063616c6c20746f206e6f6e2d636f60008201527f6e74726163740000000000000000000000000000000000000000000000000000602082015250565b6113b4816110fe565b81146113bf57600080fd5b5056fe416464726573733a206c6f772d6c6576656c2064656c65676174652063616c6c206661696c6564a2646970667358221220f815ab8c3860c7bec5ed40e59ba7a7184122a2b8f61e1c60331537831b09d32b64736f6c63430008070033",
  "immutableReferences": {},
  "source": "pragma solidity ^0.8.0;\r\n\r\nimport \"../node_modules/@openzeppelin/contracts-upgradeable/proxy/utils/Initializable.sol\";\r\nimport \"../node_modules/@openzeppelin/contracts-upgradeable/proxy/utils/UUPSUpgradeable.sol\";\r\nimport \"../node_modules/@openzeppelin/contracts-upgradeable/access/OwnableUpgradeable.sol\";\r\n\r\ncontract samp is Initializable,UUPSUpgradeable,OwnableUpgradeable{\r\n    function initialize() public initializer {\r\n        __Ownable_init();\r\n    }\r\n\r\n    function _authorizeUpgrade(address newImplementation) internal override onlyOwner{\r\n        \r\n    }\r\n    \r\n    function retvalue() pure public virtual returns(string memory){\r\n        return(\"v1\");\r\n    }\r\n\r\n}\r\n\r\ncontract samp2 is samp{\r\n    function retvalue() pure public virtual override returns(string memory){\r\n        return(\"v2\");\r\n    }\r\n}",
  "sourcePath": "D:/Work/UpgradableConcept/contracts/samp2.sol",
  "compiler": {
    "name": "solc",
    "version": "0.8.7+commit.e28d00a7.Emscripten.clang"
  },
  "schemaVersion": "3.4.1",
  "updatedAt": "2021-09-15T10:39:03.840Z",
  "networkType": "ethereum",
  "devdoc": {
    "kind": "dev",
    "methods": {
      "owner()": {
        "details": "Returns the address of the current owner."
      },
      "renounceOwnership()": {
        "details": "Leaves the contract without owner. It will not be possible to call `onlyOwner` functions anymore. Can only be called by the current owner. NOTE: Renouncing ownership will leave the contract without an owner, thereby removing any functionality that is only available to the owner."
      },
      "transferOwnership(address)": {
        "details": "Transfers ownership of the contract to a new account (`newOwner`). Can only be called by the current owner."
      },
      "upgradeTo(address)": {
        "details": "Upgrade the implementation of the proxy to `newImplementation`. Calls {_authorizeUpgrade}. Emits an {Upgraded} event."
      },
      "upgradeToAndCall(address,bytes)": {
        "details": "Upgrade the implementation of the proxy to `newImplementation`, and subsequently execute the function call encoded in `data`. Calls {_authorizeUpgrade}. Emits an {Upgraded} event."
      }
    },
    "version": 1
  },
  "userdoc": {
    "kind": "user",
    "methods": {},
    "version": 1
  }
}