{
  "contractName": "tradeBook",
  "abi": [
    {
      "inputs": [],
      "name": "tradeIndex",
      "outputs": [
        {
          "internalType": "uint256",
          "name": "",
          "type": "uint256"
        }
      ],
      "stateMutability": "view",
      "type": "function"
    },
    {
      "inputs": [
        {
          "internalType": "uint256",
          "name": "",
          "type": "uint256"
        }
      ],
      "name": "tradeSheet",
      "outputs": [
        {
          "internalType": "uint256",
          "name": "orderTime",
          "type": "uint256"
        },
        {
          "internalType": "address",
          "name": "addressOfInitiator",
          "type": "address"
        },
        {
          "internalType": "address",
          "name": "addressOfInitiatorToken",
          "type": "address"
        },
        {
          "internalType": "uint256",
          "name": "amountOfInitiatorToken",
          "type": "uint256"
        },
        {
          "internalType": "address",
          "name": "addressOfTaker",
          "type": "address"
        },
        {
          "internalType": "address",
          "name": "addressOfTakerToken",
          "type": "address"
        },
        {
          "internalType": "uint256",
          "name": "amountOfTakerToken",
          "type": "uint256"
        },
        {
          "internalType": "uint256",
          "name": "tradeCloseTime",
          "type": "uint256"
        },
        {
          "internalType": "bool",
          "name": "tradeStatus",
          "type": "bool"
        }
      ],
      "stateMutability": "view",
      "type": "function"
    },
    {
      "inputs": [
        {
          "internalType": "address",
          "name": "_iasset",
          "type": "address"
        },
        {
          "internalType": "uint256",
          "name": "_iamount",
          "type": "uint256"
        },
        {
          "internalType": "address",
          "name": "_tasset",
          "type": "address"
        }
      ],
      "name": "initializeTrade",
      "outputs": [],
      "stateMutability": "nonpayable",
      "type": "function"
    },
    {
      "inputs": [
        {
          "internalType": "uint256",
          "name": "tradeID",
          "type": "uint256"
        }
      ],
      "name": "takeTrade",
      "outputs": [],
      "stateMutability": "nonpayable",
      "type": "function"
    },
    {
      "inputs": [
        {
          "internalType": "uint256",
          "name": "tradeID",
          "type": "uint256"
        }
      ],
      "name": "costreturn",
      "outputs": [
        {
          "internalType": "uint256",
          "name": "",
          "type": "uint256"
        }
      ],
      "stateMutability": "view",
      "type": "function"
    },
    {
      "inputs": [
        {
          "internalType": "uint256",
          "name": "curr",
          "type": "uint256"
        },
        {
          "internalType": "address",
          "name": "targetAsset",
          "type": "address"
        }
      ],
      "name": "currtousd",
      "outputs": [
        {
          "internalType": "uint256",
          "name": "",
          "type": "uint256"
        }
      ],
      "stateMutability": "view",
      "type": "function"
    },
    {
      "inputs": [
        {
          "internalType": "uint256",
          "name": "usd",
          "type": "uint256"
        },
        {
          "internalType": "address",
          "name": "targetAsset",
          "type": "address"
        }
      ],
      "name": "usdtocurr",
      "outputs": [
        {
          "internalType": "uint256",
          "name": "",
          "type": "uint256"
        }
      ],
      "stateMutability": "view",
      "type": "function"
    }
  ],
  "bytecode": "0x6080604052600060015534801561001557600080fd5b5061192b806100256000396000f3fe608060405234801561001057600080fd5b506004361061007d5760003560e01c80638f55da5b1161005b5780638f55da5b1461011a57806390c35e1414610136578063c6b02caa14610152578063d30de188146101825761007d565b80632a0e7a62146100825780635985d5cc146100b25780637b0c7c9f146100e2575b600080fd5b61009c6004803603810190610097919061120d565b6101a0565b6040516100a991906114cc565b60405180910390f35b6100cc60048036038101906100c791906111e0565b610318565b6040516100d991906114cc565b60405180910390f35b6100fc60048036038101906100f791906111e0565b610515565b604051610111999897969594939291906114e7565b60405180910390f35b610134600480360381019061012f91906111e0565b6105f0565b005b610150600480360381019061014b9190611133565b610974565b005b61016c6004803603810190610167919061120d565b610be5565b60405161017991906114cc565b60405180910390f35b61018a610d5d565b60405161019791906114cc565b60405180910390f35b600080600090507390ce3cf973d781453a38a15ccb136fbf18381a3873ffffffffffffffffffffffffffffffffffffffff168373ffffffffffffffffffffffffffffffffffffffff1614156102075773ece365b379e1dd183b20fc5f022230c044d5140490505b73c8c3a0d984c7073d1557c5e6f861ba7f8167873873ffffffffffffffffffffffffffffffffffffffff168373ffffffffffffffffffffffffffffffffffffffff16141561026757738a753747a1fa494ec906ce90e9f37563a8af630e90505b60008190506000670de0b6b3a76400008273ffffffffffffffffffffffffffffffffffffffff166350d25bcd6040518163ffffffff1660e01b815260040160206040518083038186803b1580156102bd57600080fd5b505afa1580156102d1573d6000803e3d6000fd5b505050506040513d601f19601f820116820180604052508101906102f591906111b3565b87610300919061162d565b61030a91906115fc565b905080935050505092915050565b60008060008084815260200190815260200160002060405180610120016040529081600082015481526020016001820160009054906101000a900473ffffffffffffffffffffffffffffffffffffffff1673ffffffffffffffffffffffffffffffffffffffff1673ffffffffffffffffffffffffffffffffffffffff1681526020016002820160009054906101000a900473ffffffffffffffffffffffffffffffffffffffff1673ffffffffffffffffffffffffffffffffffffffff1673ffffffffffffffffffffffffffffffffffffffff168152602001600382015481526020016004820160009054906101000a900473ffffffffffffffffffffffffffffffffffffffff1673ffffffffffffffffffffffffffffffffffffffff1673ffffffffffffffffffffffffffffffffffffffff1681526020016005820160009054906101000a900473ffffffffffffffffffffffffffffffffffffffff1673ffffffffffffffffffffffffffffffffffffffff1673ffffffffffffffffffffffffffffffffffffffff16815260200160068201548152602001600782015481526020016008820160009054906101000a900460ff161515151581525050905060008160400151905060008260a00151905060006104f88460600151846101a0565b905060006105068284610be5565b90508095505050505050919050565b60006020528060005260406000206000915090508060000154908060010160009054906101000a900473ffffffffffffffffffffffffffffffffffffffff16908060020160009054906101000a900473ffffffffffffffffffffffffffffffffffffffff16908060030154908060040160009054906101000a900473ffffffffffffffffffffffffffffffffffffffff16908060050160009054906101000a900473ffffffffffffffffffffffffffffffffffffffff16908060060154908060070154908060080160009054906101000a900460ff16905089565b600080600083815260200190815260200160002060405180610120016040529081600082015481526020016001820160009054906101000a900473ffffffffffffffffffffffffffffffffffffffff1673ffffffffffffffffffffffffffffffffffffffff1673ffffffffffffffffffffffffffffffffffffffff1681526020016002820160009054906101000a900473ffffffffffffffffffffffffffffffffffffffff1673ffffffffffffffffffffffffffffffffffffffff1673ffffffffffffffffffffffffffffffffffffffff168152602001600382015481526020016004820160009054906101000a900473ffffffffffffffffffffffffffffffffffffffff1673ffffffffffffffffffffffffffffffffffffffff1673ffffffffffffffffffffffffffffffffffffffff1681526020016005820160009054906101000a900473ffffffffffffffffffffffffffffffffffffffff1673ffffffffffffffffffffffffffffffffffffffff1673ffffffffffffffffffffffffffffffffffffffff16815260200160068201548152602001600782015481526020016008820160009054906101000a900460ff1615151515815250509050600015158161010001511515146107f9576040517f08c379a00000000000000000000000000000000000000000000000000000000081526004016107f09061142c565b60405180910390fd5b806020015173ffffffffffffffffffffffffffffffffffffffff163373ffffffffffffffffffffffffffffffffffffffff16141561086c576040517f08c379a00000000000000000000000000000000000000000000000000000000081526004016108639061144c565b60405180910390fd5b60008160400151905060008260a001519050600061088e8460600151846101a0565b9050600061089c8284610be5565b905033856080019073ffffffffffffffffffffffffffffffffffffffff16908173ffffffffffffffffffffffffffffffffffffffff1681525050808560c0018181525050428560e0018181525050600185610100019015159081151581525050600084905060008490506109353388606001518473ffffffffffffffffffffffffffffffffffffffff16610d639092919063ffffffff16565b61096a3388602001518960c001518473ffffffffffffffffffffffffffffffffffffffff16610de9909392919063ffffffff16565b5050505050505050565b600180600082825461098691906115a6565b9250508190555060006040518061012001604052804281526020013373ffffffffffffffffffffffffffffffffffffffff1681526020018573ffffffffffffffffffffffffffffffffffffffff168152602001848152602001600073ffffffffffffffffffffffffffffffffffffffff1681526020018373ffffffffffffffffffffffffffffffffffffffff16815260200160008152602001600081526020016000151581525090506000849050610a613330868473ffffffffffffffffffffffffffffffffffffffff16610de9909392919063ffffffff16565b8160008060015481526020019081526020016000206000820151816000015560208201518160010160006101000a81548173ffffffffffffffffffffffffffffffffffffffff021916908373ffffffffffffffffffffffffffffffffffffffff16021790555060408201518160020160006101000a81548173ffffffffffffffffffffffffffffffffffffffff021916908373ffffffffffffffffffffffffffffffffffffffff1602179055506060820151816003015560808201518160040160006101000a81548173ffffffffffffffffffffffffffffffffffffffff021916908373ffffffffffffffffffffffffffffffffffffffff16021790555060a08201518160050160006101000a81548173ffffffffffffffffffffffffffffffffffffffff021916908373ffffffffffffffffffffffffffffffffffffffff16021790555060c0820151816006015560e082015181600701556101008201518160080160006101000a81548160ff0219169083151502179055509050505050505050565b600080600090507390ce3cf973d781453a38a15ccb136fbf18381a3873ffffffffffffffffffffffffffffffffffffffff168373ffffffffffffffffffffffffffffffffffffffff161415610c4c5773ece365b379e1dd183b20fc5f022230c044d5140490505b73c8c3a0d984c7073d1557c5e6f861ba7f8167873873ffffffffffffffffffffffffffffffffffffffff168373ffffffffffffffffffffffffffffffffffffffff161415610cac57738a753747a1fa494ec906ce90e9f37563a8af630e90505b600081905060008173ffffffffffffffffffffffffffffffffffffffff166350d25bcd6040518163ffffffff1660e01b815260040160206040518083038186803b158015610cf957600080fd5b505afa158015610d0d573d6000803e3d6000fd5b505050506040513d601f19601f82011682018060405250810190610d3191906111b3565b670de0b6b3a764000087610d45919061162d565b610d4f91906115fc565b905080935050505092915050565b60015481565b610de48363a9059cbb60e01b8484604051602401610d829291906113e1565b604051602081830303815290604052907bffffffffffffffffffffffffffffffffffffffffffffffffffffffff19166020820180517bffffffffffffffffffffffffffffffffffffffffffffffffffffffff8381831617835250505050610e72565b505050565b610e6c846323b872dd60e01b858585604051602401610e0a939291906113aa565b604051602081830303815290604052907bffffffffffffffffffffffffffffffffffffffffffffffffffffffff19166020820180517bffffffffffffffffffffffffffffffffffffffffffffffffffffffff8381831617835250505050610e72565b50505050565b6000610ed4826040518060400160405280602081526020017f5361666545524332303a206c6f772d6c6576656c2063616c6c206661696c65648152508573ffffffffffffffffffffffffffffffffffffffff16610f399092919063ffffffff16565b9050600081511115610f345780806020019051810190610ef49190611186565b610f33576040517f08c379a0000000000000000000000000000000000000000000000000000000008152600401610f2a906114ac565b60405180910390fd5b5b505050565b6060610f488484600085610f51565b90509392505050565b606082471015610f96576040517f08c379a0000000000000000000000000000000000000000000000000000000008152600401610f8d9061146c565b60405180910390fd5b610f9f85611065565b610fde576040517f08c379a0000000000000000000000000000000000000000000000000000000008152600401610fd59061148c565b60405180910390fd5b6000808673ffffffffffffffffffffffffffffffffffffffff1685876040516110079190611393565b60006040518083038185875af1925050503d8060008114611044576040519150601f19603f3d011682016040523d82523d6000602084013e611049565b606091505b5091509150611059828286611078565b92505050949350505050565b600080823b905060008111915050919050565b60608315611088578290506110d8565b60008351111561109b5782518084602001fd5b816040517f08c379a00000000000000000000000000000000000000000000000000000000081526004016110cf919061140a565b60405180910390fd5b9392505050565b6000813590506110ee81611899565b92915050565b600081519050611103816118b0565b92915050565b600081519050611118816118c7565b92915050565b60008135905061112d816118de565b92915050565b60008060006060848603121561114c5761114b61176a565b5b600061115a868287016110df565b935050602061116b8682870161111e565b925050604061117c868287016110df565b9150509250925092565b60006020828403121561119c5761119b61176a565b5b60006111aa848285016110f4565b91505092915050565b6000602082840312156111c9576111c861176a565b5b60006111d784828501611109565b91505092915050565b6000602082840312156111f6576111f561176a565b5b60006112048482850161111e565b91505092915050565b600080604083850312156112245761122361176a565b5b60006112328582860161111e565b9250506020611243858286016110df565b9150509250929050565b61125681611687565b82525050565b61126581611699565b82525050565b600061127682611574565b611280818561158a565b93506112908185602086016116d9565b80840191505092915050565b60006112a78261157f565b6112b18185611595565b93506112c18185602086016116d9565b6112ca8161176f565b840191505092915050565b60006112e2602083611595565b91506112ed82611780565b602082019050919050565b6000611305602083611595565b9150611310826117a9565b602082019050919050565b6000611328602683611595565b9150611333826117d2565b604082019050919050565b600061134b601d83611595565b915061135682611821565b602082019050919050565b600061136e602a83611595565b91506113798261184a565b604082019050919050565b61138d816116cf565b82525050565b600061139f828461126b565b915081905092915050565b60006060820190506113bf600083018661124d565b6113cc602083018561124d565b6113d96040830184611384565b949350505050565b60006040820190506113f6600083018561124d565b6114036020830184611384565b9392505050565b60006020820190508181036000830152611424818461129c565b905092915050565b60006020820190508181036000830152611445816112d5565b9050919050565b60006020820190508181036000830152611465816112f8565b9050919050565b600060208201905081810360008301526114858161131b565b9050919050565b600060208201905081810360008301526114a58161133e565b9050919050565b600060208201905081810360008301526114c581611361565b9050919050565b60006020820190506114e16000830184611384565b92915050565b6000610120820190506114fd600083018c611384565b61150a602083018b61124d565b611517604083018a61124d565b6115246060830189611384565b611531608083018861124d565b61153e60a083018761124d565b61154b60c0830186611384565b61155860e0830185611384565b61156661010083018461125c565b9a9950505050505050505050565b600081519050919050565b600081519050919050565b600081905092915050565b600082825260208201905092915050565b60006115b1826116cf565b91506115bc836116cf565b9250827fffffffffffffffffffffffffffffffffffffffffffffffffffffffffffffffff038211156115f1576115f061170c565b5b828201905092915050565b6000611607826116cf565b9150611612836116cf565b9250826116225761162161173b565b5b828204905092915050565b6000611638826116cf565b9150611643836116cf565b9250817fffffffffffffffffffffffffffffffffffffffffffffffffffffffffffffffff048311821515161561167c5761167b61170c565b5b828202905092915050565b6000611692826116af565b9050919050565b60008115159050919050565b6000819050919050565b600073ffffffffffffffffffffffffffffffffffffffff82169050919050565b6000819050919050565b60005b838110156116f75780820151818401526020810190506116dc565b83811115611706576000848401525b50505050565b7f4e487b7100000000000000000000000000000000000000000000000000000000600052601160045260246000fd5b7f4e487b7100000000000000000000000000000000000000000000000000000000600052601260045260246000fd5b600080fd5b6000601f19601f8301169050919050565b7f54726164652068617320616c7265616479206265656e20636f6d706c65746564600082015250565b7f596f752063616e6e6f742061636365707420796f7572206f776e207472616465600082015250565b7f416464726573733a20696e73756666696369656e742062616c616e636520666f60008201527f722063616c6c0000000000000000000000000000000000000000000000000000602082015250565b7f416464726573733a2063616c6c20746f206e6f6e2d636f6e7472616374000000600082015250565b7f5361666545524332303a204552433230206f7065726174696f6e20646964206e60008201527f6f74207375636365656400000000000000000000000000000000000000000000602082015250565b6118a281611687565b81146118ad57600080fd5b50565b6118b981611699565b81146118c457600080fd5b50565b6118d0816116a5565b81146118db57600080fd5b50565b6118e7816116cf565b81146118f257600080fd5b5056fea2646970667358221220e1401c2ff42b010eb67894826c0cf3b23ae90f87080b83437d12191e848ae1e964736f6c63430008070033",
  "immutableReferences": {},
  "source": "pragma solidity ^0.8.0;\r\n\r\nlibrary Address {\r\n    /**\r\n     * @dev Returns true if `account` is a contract.\r\n     *\r\n     * [IMPORTANT]\r\n     * ====\r\n     * It is unsafe to assume that an address for which this function returns\r\n     * false is an externally-owned account (EOA) and not a contract.\r\n     *\r\n     * Among others, `isContract` will return false for the following\r\n     * types of addresses:\r\n     *\r\n     *  - an externally-owned account\r\n     *  - a contract in construction\r\n     *  - an address where a contract will be created\r\n     *  - an address where a contract lived, but was destroyed\r\n     * ====\r\n     */\r\n    function isContract(address account) internal view returns (bool) {\r\n        // This method relies on extcodesize, which returns 0 for contracts in\r\n        // construction, since the code is only stored at the end of the\r\n        // constructor execution.\r\n\r\n        uint256 size;\r\n        // solhint-disable-next-line no-inline-assembly\r\n        assembly { size := extcodesize(account) }\r\n        return size > 0;\r\n    }\r\n\r\n    /**\r\n     * @dev Replacement for Solidity's `transfer`: sends `amount` wei to\r\n     * `recipient`, forwarding all available gas and reverting on errors.\r\n     *\r\n     * https://eips.ethereum.org/EIPS/eip-1884[EIP1884] increases the gas cost\r\n     * of certain opcodes, possibly making contracts go over the 2300 gas limit\r\n     * imposed by `transfer`, making them unable to receive funds via\r\n     * `transfer`. {sendValue} removes this limitation.\r\n     *\r\n     * https://diligence.consensys.net/posts/2019/09/stop-using-soliditys-transfer-now/[Learn more].\r\n     *\r\n     * IMPORTANT: because control is transferred to `recipient`, care must be\r\n     * taken to not create reentrancy vulnerabilities. Consider using\r\n     * {ReentrancyGuard} or the\r\n     * https://solidity.readthedocs.io/en/v0.5.11/security-considerations.html#use-the-checks-effects-interactions-pattern[checks-effects-interactions pattern].\r\n     */\r\n    function sendValue(address payable recipient, uint256 amount) internal {\r\n        require(address(this).balance >= amount, \"Address: insufficient balance\");\r\n\r\n        // solhint-disable-next-line avoid-low-level-calls, avoid-call-value\r\n        (bool success, ) = recipient.call{ value: amount }(\"\");\r\n        require(success, \"Address: unable to send value, recipient may have reverted\");\r\n    }\r\n\r\n    /**\r\n     * @dev Performs a Solidity function call using a low level `call`. A\r\n     * plain`call` is an unsafe replacement for a function call: use this\r\n     * function instead.\r\n     *\r\n     * If `target` reverts with a revert reason, it is bubbled up by this\r\n     * function (like regular Solidity function calls).\r\n     *\r\n     * Returns the raw returned data. To convert to the expected return value,\r\n     * use https://solidity.readthedocs.io/en/latest/units-and-global-variables.html?highlight=abi.decode#abi-encoding-and-decoding-functions[`abi.decode`].\r\n     *\r\n     * Requirements:\r\n     *\r\n     * - `target` must be a contract.\r\n     * - calling `target` with `data` must not revert.\r\n     *\r\n     * _Available since v3.1._\r\n     */\r\n    function functionCall(address target, bytes memory data) internal returns (bytes memory) {\r\n      return functionCall(target, data, \"Address: low-level call failed\");\r\n    }\r\n\r\n    /**\r\n     * @dev Same as {xref-Address-functionCall-address-bytes-}[`functionCall`], but with\r\n     * `errorMessage` as a fallback revert reason when `target` reverts.\r\n     *\r\n     * _Available since v3.1._\r\n     */\r\n    function functionCall(address target, bytes memory data, string memory errorMessage) internal returns (bytes memory) {\r\n        return functionCallWithValue(target, data, 0, errorMessage);\r\n    }\r\n\r\n    /**\r\n     * @dev Same as {xref-Address-functionCall-address-bytes-}[`functionCall`],\r\n     * but also transferring `value` wei to `target`.\r\n     *\r\n     * Requirements:\r\n     *\r\n     * - the calling contract must have an ETH balance of at least `value`.\r\n     * - the called Solidity function must be `payable`.\r\n     *\r\n     * _Available since v3.1._\r\n     */\r\n    function functionCallWithValue(address target, bytes memory data, uint256 value) internal returns (bytes memory) {\r\n        return functionCallWithValue(target, data, value, \"Address: low-level call with value failed\");\r\n    }\r\n\r\n    /**\r\n     * @dev Same as {xref-Address-functionCallWithValue-address-bytes-uint256-}[`functionCallWithValue`], but\r\n     * with `errorMessage` as a fallback revert reason when `target` reverts.\r\n     *\r\n     * _Available since v3.1._\r\n     */\r\n    function functionCallWithValue(address target, bytes memory data, uint256 value, string memory errorMessage) internal returns (bytes memory) {\r\n        require(address(this).balance >= value, \"Address: insufficient balance for call\");\r\n        require(isContract(target), \"Address: call to non-contract\");\r\n\r\n        // solhint-disable-next-line avoid-low-level-calls\r\n        (bool success, bytes memory returndata) = target.call{ value: value }(data);\r\n        return _verifyCallResult(success, returndata, errorMessage);\r\n    }\r\n\r\n    /**\r\n     * @dev Same as {xref-Address-functionCall-address-bytes-}[`functionCall`],\r\n     * but performing a static call.\r\n     *\r\n     * _Available since v3.3._\r\n     */\r\n    function functionStaticCall(address target, bytes memory data) internal view returns (bytes memory) {\r\n        return functionStaticCall(target, data, \"Address: low-level static call failed\");\r\n    }\r\n\r\n    /**\r\n     * @dev Same as {xref-Address-functionCall-address-bytes-string-}[`functionCall`],\r\n     * but performing a static call.\r\n     *\r\n     * _Available since v3.3._\r\n     */\r\n    function functionStaticCall(address target, bytes memory data, string memory errorMessage) internal view returns (bytes memory) {\r\n        require(isContract(target), \"Address: static call to non-contract\");\r\n\r\n        // solhint-disable-next-line avoid-low-level-calls\r\n        (bool success, bytes memory returndata) = target.staticcall(data);\r\n        return _verifyCallResult(success, returndata, errorMessage);\r\n    }\r\n\r\n    /**\r\n     * @dev Same as {xref-Address-functionCall-address-bytes-}[`functionCall`],\r\n     * but performing a delegate call.\r\n     *\r\n     * _Available since v3.4._\r\n     */\r\n    function functionDelegateCall(address target, bytes memory data) internal returns (bytes memory) {\r\n        return functionDelegateCall(target, data, \"Address: low-level delegate call failed\");\r\n    }\r\n\r\n    /**\r\n     * @dev Same as {xref-Address-functionCall-address-bytes-string-}[`functionCall`],\r\n     * but performing a delegate call.\r\n     *\r\n     * _Available since v3.4._\r\n     */\r\n    function functionDelegateCall(address target, bytes memory data, string memory errorMessage) internal returns (bytes memory) {\r\n        require(isContract(target), \"Address: delegate call to non-contract\");\r\n\r\n        // solhint-disable-next-line avoid-low-level-calls\r\n        (bool success, bytes memory returndata) = target.delegatecall(data);\r\n        return _verifyCallResult(success, returndata, errorMessage);\r\n    }\r\n\r\n    function _verifyCallResult(bool success, bytes memory returndata, string memory errorMessage) private pure returns(bytes memory) {\r\n        if (success) {\r\n            return returndata;\r\n        } else {\r\n            // Look for revert reason and bubble it up if present\r\n            if (returndata.length > 0) {\r\n                // The easiest way to bubble the revert reason is using memory via assembly\r\n\r\n                // solhint-disable-next-line no-inline-assembly\r\n                assembly {\r\n                    let returndata_size := mload(returndata)\r\n                    revert(add(32, returndata), returndata_size)\r\n                }\r\n            } else {\r\n                revert(errorMessage);\r\n            }\r\n        }\r\n    }\r\n}\r\n\r\n\r\ninterface IERC20 {\r\n    \r\n    \r\n    /**\r\n     * @dev Returns the amount of tokens in existence.\r\n     */\r\n    function totalSupply() external view returns (uint256);\r\n\r\n    /**\r\n     * @dev Returns the amount of tokens owned by `account`.\r\n     */\r\n    function balanceOf(address account) external view returns (uint256);\r\n\r\n    /**\r\n     * @dev Moves `amount` tokens from the caller's account to `recipient`.\r\n     *\r\n     * Returns a boolean value indicating whether the operation succeeded.\r\n     *\r\n     * Emits a {Transfer} event.\r\n     */\r\n    function transfer(address recipient, uint256 amount) external returns (bool);\r\n\r\n    /**\r\n     * @dev Returns the remaining number of tokens that `spender` will be\r\n     * allowed to spend on behalf of `owner` through {transferFrom}. This is\r\n     * zero by default.\r\n     *\r\n     * This value changes when {approve} or {transferFrom} are called.\r\n     */\r\n    function allowance(address owner, address spender) external view returns (uint256);\r\n\r\n    /**\r\n     * @dev Sets `amount` as the allowance of `spender` over the caller's tokens.\r\n     *\r\n     * Returns a boolean value indicating whether the operation succeeded.\r\n     *\r\n     * IMPORTANT: Beware that changing an allowance with this method brings the risk\r\n     * that someone may use both the old and the new allowance by unfortunate\r\n     * transaction ordering. One possible solution to mitigate this race\r\n     * condition is to first reduce the spender's allowance to 0 and set the\r\n     * desired value afterwards:\r\n     * https://github.com/ethereum/EIPs/issues/20#issuecomment-263524729\r\n     *\r\n     * Emits an {Approval} event.\r\n     */\r\n    function approve(address spender, uint256 amount) external returns (bool);\r\n\r\n    /**\r\n     * @dev Moves `amount` tokens from `sender` to `recipient` using the\r\n     * allowance mechanism. `amount` is then deducted from the caller's\r\n     * allowance.\r\n     *\r\n     * Returns a boolean value indicating whether the operation succeeded.\r\n     *\r\n     * Emits a {Transfer} event.\r\n     */\r\n    function transferFrom(address sender, address recipient, uint256 amount) external returns (bool);\r\n\r\n    /**\r\n     * @dev Emitted when `value` tokens are moved from one account (`from`) to\r\n     * another (`to`).\r\n     *\r\n     * Note that `value` may be zero.\r\n     */\r\n    event Transfer(address indexed from, address indexed to, uint256 value);\r\n\r\n    /**\r\n     * @dev Emitted when the allowance of a `spender` for an `owner` is set by\r\n     * a call to {approve}. `value` is the new allowance.\r\n     */\r\n    event Approval(address indexed owner, address indexed spender, uint256 value);\r\n}\r\n\r\nlibrary SafeERC20 {\r\n    using Address for address;\r\n\r\n    function safeTransfer(IERC20 token, address to, uint256 value) internal {\r\n        _callOptionalReturn(token, abi.encodeWithSelector(token.transfer.selector, to, value));\r\n    }\r\n\r\n    function safeTransferFrom(IERC20 token, address from, address to, uint256 value) internal {\r\n        _callOptionalReturn(token, abi.encodeWithSelector(token.transferFrom.selector, from, to, value));\r\n    }\r\n\r\n    /**\r\n     * @dev Deprecated. This function has issues similar to the ones found in\r\n     * {IERC20-approve}, and its usage is discouraged.\r\n     *\r\n     * Whenever possible, use {safeIncreaseAllowance} and\r\n     * {safeDecreaseAllowance} instead.\r\n     */\r\n    function safeApprove(IERC20 token, address spender, uint256 value) internal {\r\n        // safeApprove should only be called when setting an initial allowance,\r\n        // or when resetting it to zero. To increase and decrease it, use\r\n        // 'safeIncreaseAllowance' and 'safeDecreaseAllowance'\r\n        // solhint-disable-next-line max-line-length\r\n        require((value == 0) || (token.allowance(address(this), spender) == 0),\r\n            \"SafeERC20: approve from non-zero to non-zero allowance\"\r\n        );\r\n        _callOptionalReturn(token, abi.encodeWithSelector(token.approve.selector, spender, value));\r\n    }\r\n\r\n    function safeIncreaseAllowance(IERC20 token, address spender, uint256 value) internal {\r\n        uint256 newAllowance = token.allowance(address(this), spender) + value;\r\n        _callOptionalReturn(token, abi.encodeWithSelector(token.approve.selector, spender, newAllowance));\r\n    }\r\n\r\n    function safeDecreaseAllowance(IERC20 token, address spender, uint256 value) internal {\r\n         {\r\n            uint256 oldAllowance = token.allowance(address(this), spender);\r\n            require(oldAllowance >= value, \"SafeERC20: decreased allowance below zero\");\r\n            uint256 newAllowance = oldAllowance - value;\r\n            _callOptionalReturn(token, abi.encodeWithSelector(token.approve.selector, spender, newAllowance));\r\n        }\r\n    }\r\n\r\n    /**\r\n     * @dev Imitates a Solidity high-level call (i.e. a regular function call to a contract), relaxing the requirement\r\n     * on the return value: the return value is optional (but if data is returned, it must not be false).\r\n     * @param token The token targeted by the call.\r\n     * @param data The call data (encoded using abi.encode or one of its variants).\r\n     */\r\n    function _callOptionalReturn(IERC20 token, bytes memory data) private {\r\n        // We need to perform a low level call here, to bypass Solidity's return data size checking mechanism, since\r\n        // we're implementing it ourselves. We use {Address.functionCall} to perform this call, which verifies that\r\n        // the target address contains contract code and also asserts for success in the low-level call.\r\n\r\n        bytes memory returndata = address(token).functionCall(data, \"SafeERC20: low-level call failed\");\r\n        if (returndata.length > 0) { // Return data is optional\r\n            // solhint-disable-next-line max-line-length\r\n            require(abi.decode(returndata, (bool)), \"SafeERC20: ERC20 operation did not succeed\");\r\n        }\r\n    }\r\n}\r\n\r\npragma solidity >=0.6.0;\r\n\r\ninterface AggregatorInterface {\r\n  function latestAnswer() external view returns (int256);\r\n  function latestTimestamp() external view returns (uint256);\r\n  function latestRound() external view returns (uint256);\r\n  function getAnswer(uint256 roundId) external view returns (int256);\r\n  function getTimestamp(uint256 roundId) external view returns (uint256);\r\n\r\n  event AnswerUpdated(int256 indexed current, uint256 indexed roundId, uint256 updatedAt);\r\n  event NewRound(uint256 indexed roundId, address indexed startedBy, uint256 startedAt);\r\n}\r\n\r\npragma solidity >=0.6.0;\r\n\r\ninterface AggregatorV3Interface {\r\n\r\n  function decimals() external view returns (uint8);\r\n  function description() external view returns (string memory);\r\n  function version() external view returns (uint256);\r\n\r\n  // getRoundData and latestRoundData should both raise \"No data present\"\r\n  // if they do not have data to report, instead of returning unset values\r\n  // which could be misinterpreted as actual reported values.\r\n  function getRoundData(uint80 _roundId)\r\n    external\r\n    view\r\n    returns (\r\n      uint80 roundId,\r\n      int256 answer,\r\n      uint256 startedAt,\r\n      uint256 updatedAt,\r\n      uint80 answeredInRound\r\n    );\r\n  function latestRoundData()\r\n    external\r\n    view\r\n    returns (\r\n      uint80 roundId,\r\n      int256 answer,\r\n      uint256 startedAt,\r\n      uint256 updatedAt,\r\n      uint80 answeredInRound\r\n    );\r\n\r\n}\r\n\r\npragma solidity >=0.6.0;\r\n\r\ninterface AggregatorV2V3Interface is AggregatorInterface, AggregatorV3Interface\r\n{\r\n}\r\n\r\npragma solidity ^0.8.0;\r\ncontract tradeBook {\r\n\r\n   using SafeERC20 for IERC20;\r\n\r\n   struct trade { \r\n      uint256 orderTime;\r\n      address addressOfInitiator;\r\n      address addressOfInitiatorToken;\r\n      uint256 amountOfInitiatorToken;\r\n      address addressOfTaker;\r\n      address addressOfTakerToken;\r\n      uint256 amountOfTakerToken;\r\n      uint256 tradeCloseTime;\r\n      bool tradeStatus;\r\n   } \r\n\r\n   mapping(uint256 => trade) public tradeSheet;\r\n\r\n\r\n   uint256 public tradeIndex=0;\r\n\r\n   function initializeTrade(address _iasset, uint256 _iamount,address _tasset) public {\r\n      \r\n      tradeIndex+=1;\r\n      trade memory newTrade = trade(\r\n         block.timestamp,\r\n         msg.sender,\r\n         _iasset,\r\n         _iamount,\r\n         address(0),\r\n         _tasset,\r\n         0,\r\n         0,\r\n         false\r\n         );\r\n      \r\n      IERC20 tokenERC = IERC20(_iasset);\r\n\r\n      tokenERC.safeTransferFrom(msg.sender, address(this), _iamount);\r\n\r\n      tradeSheet[tradeIndex] = newTrade;\r\n\r\n   }\r\n\r\n   function takeTrade(uint256 tradeID) public{\r\n      \r\n      trade memory currentTrade = tradeSheet[tradeID];\r\n\r\n      require(currentTrade.tradeStatus == false,\"Trade has already been completed\");\r\n      require(msg.sender != currentTrade.addressOfInitiator,\"You cannot accept your own trade\");\r\n\r\n      address sourceAsset = currentTrade.addressOfInitiatorToken;\r\n      address targeAsset = currentTrade.addressOfTakerToken;\r\n\r\n      uint256 sourceUsd = currtousd(currentTrade.amountOfInitiatorToken,sourceAsset);\r\n      uint256 targetCur = usdtocurr(sourceUsd,targeAsset);\r\n\r\n      currentTrade.addressOfTaker = msg.sender;\r\n      currentTrade.amountOfTakerToken = targetCur;\r\n      currentTrade.tradeCloseTime = block.timestamp;\r\n      currentTrade.tradeStatus = true;\r\n\r\n      IERC20 tokenSource = IERC20(sourceAsset);\r\n      IERC20 tokenTarget = IERC20(targeAsset);\r\n\r\n      tokenSource.safeTransfer(msg.sender, currentTrade.amountOfInitiatorToken);\r\n      tokenTarget.safeTransferFrom(msg.sender, currentTrade.addressOfInitiator, currentTrade.amountOfTakerToken);\r\n\r\n   }\r\n\r\n   function costreturn(uint256 tradeID) view public returns(uint256){\r\n      trade memory currentTrade = tradeSheet[tradeID];\r\n      address sourceAsset = currentTrade.addressOfInitiatorToken;\r\n      address targeAsset = currentTrade.addressOfTakerToken;\r\n      uint256 sourceUsd = currtousd(currentTrade.amountOfInitiatorToken,sourceAsset);\r\n      uint256 targetCur = usdtocurr(sourceUsd,targeAsset);\r\n      return(targetCur);\r\n   }\r\n\r\n   function currtousd(uint256 curr,address targetAsset) view public returns(uint256){\r\n      address oracleAdr = address(0);\r\n      if (targetAsset == 0x90cE3cF973D781453a38a15ccb136fbF18381A38) {\r\n         oracleAdr = 0xECe365B379E1dD183B20fc5f022230C044d51404;\r\n      } \r\n      if (targetAsset == 0xc8C3A0d984c7073d1557c5E6F861BA7f81678738) {\r\n         oracleAdr = 0x8A753747A1Fa494EC906cE90E9f37563A8AF630e;\r\n      }\r\n      AggregatorV2V3Interface priceFeedCurrency = AggregatorV2V3Interface(oracleAdr);\r\n      uint256 currval = (curr*(uint(priceFeedCurrency.latestAnswer())))/((10**18));\r\n      return currval;\r\n  }\r\n  \r\n  function usdtocurr(uint256 usd,address targetAsset) view public returns(uint256){\r\n      \r\n      address oracleAdr = address(0);\r\n      if (targetAsset == 0x90cE3cF973D781453a38a15ccb136fbF18381A38) {\r\n         oracleAdr = 0xECe365B379E1dD183B20fc5f022230C044d51404;\r\n      } \r\n      if (targetAsset == 0xc8C3A0d984c7073d1557c5E6F861BA7f81678738) {\r\n         oracleAdr = 0x8A753747A1Fa494EC906cE90E9f37563A8AF630e;\r\n      }\r\n\r\n      AggregatorV2V3Interface priceFeedCurrency = AggregatorV2V3Interface(oracleAdr);\r\n      uint256 ucurrval = (usd*((10**18)))/(uint(priceFeedCurrency.latestAnswer()));\r\n      return ucurrval;\r\n  }\r\n\r\n   \r\n\r\n}",
  "sourcePath": "D:/Work/UpgradableConcept/contracts/tradeBook.sol",
  "compiler": {
    "name": "solc",
    "version": "0.8.7+commit.e28d00a7.Emscripten.clang"
  },
  "schemaVersion": "3.4.1",
  "updatedAt": "2021-09-15T10:38:23.813Z",
  "devdoc": {
    "kind": "dev",
    "methods": {},
    "version": 1
  },
  "userdoc": {
    "kind": "user",
    "methods": {},
    "version": 1
  }
}